S0110000506F73744C616220352E7372656309
S11300000C9434000C9446000C9446000C94460066
S11300100C9446000C9446000C9446000C94460044
S11300200C9446000C9446000C9446000C94460034
S11300300C9446000C9446000C9446000C94460024
S11300400C9446000C9446000C9446000C94460014
S11300500C9446000C943A010C9446000C9446000F
S11300600C9446000C94460011241FBECFEFD8E038
S1130070DEBFCDBF21E0A0E0B1E001C01D92A430FD
S1130080B207E1F70E94EC000C9409030C94000001
S1130090811106C0ECE7F0E080818F73808310C08B
S11300A0813049F4ECE7F0E08081806480838081D2
S11300B08F77808305C0ECE7F0E08081806C8083DB
S11300C0613031F4ECE7F0E080818062808305C028
S11300D0ECE7F0E080818F7D8083ECE7F0E08081C5
S11300E0807F482B40830895813031F4EAE7F0E0C3
S11300F080818068808305C0EAE7F0E080818F77A3
S11301008083613031F4EAE7F0E0808180628083AB
S113011005C0EAE7F0E080818F7D8083413031F4CF
S1130120EAE7F0E080818860808305C0EAE7F0E0D8
S11301308081877F8083203141F140F4243099F01D
S11301402830D1F0223009F041C007C0203479F1C1
S11301502038B1F12032D1F521C0EAE7F0E0808106
S1130160887F80830895EAE7F0E08081826080835D
S113017080818A7F80830895EAE7F0E0808183604C
S1130180808380818B7F80830895EAE7F0E080811B
S11301908460808380818C7F80830895EAE7F0E027
S11301A080818560808380818D7F80830895EAE7E4
S11301B0F0E080818660808380818E7F80830895D3
S11301C0EAE7F0E08081876080830895EAE7F0E061
S11301D08081887F80830895E1E6F0E080818068F3
S11301E08083808181608083EEE7F0E0808180629B
S11301F0808340E054E061E080E00E94870140E0B9
S113020054E060E080E00E94E10140E054E061E0FD
S113021080E00E94800247E061E081E00E944800A3
S113022020E841E060E081E00E9474007894EAE70D
S1130230F0E080818064808380910201CBEA8C9F0E
S1130240812D1124869586950E947A028091010160
S11302508C9F812D1124869586950E94060380919A
S113026000010E94DF018FE39CE90197F1F700C0D0
S11302700000DDCF1F920F920FB60F9211242F931F
S11302803F934F935F936F937F938F939F93AF931A
S1130290BF93EF93FF9380917C008F708093030151
S11302A0873051F4809179008093020145E061E048
S11302B081E00E94480015C0863051F48091790095
S11302C08093010147E061E081E00E94480009C099
S11302D0809179008093000146E061E081E00E9412
S11302E04800EAE7F0E0808180618083FF91EF912C
S11302F0BF91AF919F918F917F916F915F914F913A
S11303003F912F910F900FBE0F901F9018959AB1A7
S113031090649AB914BC15BC813019F480EC84BD86
S113032002C080E884BD611107C084B5816084BDCA
S113033084B58D7F84BD18C0613021F484B5836099
S113034084BD12C0623051F484B5816084BD84B52B
S11303508D7F84BD85B5886085BD06C084B5836006
S113036084BD85B5886085BD40345105C1F038F43D
S11303704115510561F04830510569F01CC0411523
S113038081E0580781F04115544089F014C085B5C7
S1130390816085BD089585B5826085BD089585B564
S11303A0836085BD089585B5846085BD089585B550
S11303B0856085BD089585B5816085BD089587BD37
S11303C0089594B1926094B91092800010928100C3
S11303D0813031F4E0E8F0E08081806C808305C0F6
S11303E0E0E8F0E0808180688083623009F128F4DD
S11303F0662341F0613089F03CC0633021F1643000
S113040069F137C0E0E8F0E0808181608083E1E851
S1130410F0E080818860808336C0E0E8F0E080818D
S113042082608083E1E8F0E08081886080832BC073
S1130430E0E8F0E0808183608083E1E8F0E080819F
S11304408860808320C0E0E8F0E080818160808360
S1130450E1E8F0E080818861808315C0E0E8F0E0A5
S1130460808183608083E1E8F0E08081886180831B
S11304700AC0E0E8F0E0808181608083E1E8F0E098
S113048080818860808340345105E1F038F441155F
S1130490510561F04830510579F026C0411581E0DD
S11304A05807B1F041155440C9F01EC0E1E8F0E02E
S11304B08081816080830895E1E8F0E0808182603A
S11304C080830895E1E8F0E080818360808308956B
S11304D0E1E8F0E08081846080830895E1E8F0E061
S11304E08081856080830895E1E8F0E08081816007
S11304F08083089590E09093890080938800089504
S113050094B1986094B91092B0001092B100813007
S113051021F480EC8093B00003C080E88093B000A5
S1130520611109C0E0EBF0E080818160808380810B
S11305308D7F808322C0613031F4E0EBF0E0808174
S1130540836080831AC0623071F4E0EBF0E0808154
S11305508160808380818D7F8083E1EBF0E0808106
S1130560886080830AC0E0EBF0E080818360808350
S1130570E1EBF0E08081886080834034510541F1F3
S113058048F448305105C1F040325105D9F0452BAB
S1130590B9F50CC0411581E0580731F1411584E0EB
S11305A0580741F14038510559F518C0E1EBF0E026
S11305B08081816080830895E1EBF0E08081826036
S11305C080830895E1EBF0E0808183608083089567
S11305D0E1EBF0E08081846080830895E1EBF0E05A
S11305E08081856080830895E1EBF0E080818660FE
S11305F080830895E1EBF0E0808187608083089533
S1130600E1EBF0E080818160808308958093B30002
S10906100895F894FFCFE9
S9030000FC
