S01500004C61626F7261746F72696F20352E737265633C
S11300000C9434000C9446000C9446000C94460066
S11300100C9446000C9446000C9446000C94460044
S11300200C9446000C9446000C9446000C94460034
S11300300C9446000C9446000C9446000C94460024
S11300400C9446000C9446000C9446000C94460014
S11300500C9446000C9446000C9446000C94460004
S11300600C9446000C94460011241FBECFEFD8E038
S1130070DEBFCDBF21E0A0E0B1E001C01D92A830F9
S1130080B207E1F70E9471000C9406040C9400007E
S1130090ECE7F0E080818064808380818F778083C7
S11300A080818F7D8083EAE7F0E0808187608083B0
S11300B08081806880830895ECE7F0E09081907FF0
S11300C08F70892B8083EAE7F0E0808180648083ED
S11300D080917A0086FDFCCF809178009091790020
S11300E008958FEF8AB90E9448000E94AA000E94D6
S11300F0570180E00E945C00BC0180E090E00E9417
S11301000B0360930401709305018093060190939F
S113011007010E9425018FE39CE90197F1F700C0D4
S1130120000081E00E945C00BC0180E090E00E943D
S11301300B0360930001709301018093020190937B
S113014003010E94CF018FE39CE90197F1F700C0FE
S11301500000CFCF84B1826084B9109285001092E0
S113016084008FE39CE99093870080938600E0E805
S1130170F0E080E88083808182608083E1E8F0E0C1
S113018088E1808380818260808308954F925F92AA
S11301906F927F92AF92BF92CF92DF92EF92FF92D3
S11301A00F931F93CF93DF93CDB7DEB728970FB686
S11301B0F894DEBF0FBECDBF29013A01ED82FE8265
S11301C00F8318870E94FD0169837A838B839C8344
S11301D0A6019501698D7A8D8B8D9C8D0E94FD0100
S11301E09B01AC0169817A818B819C810E94990376
S11301F069837A838B839C83A3019201C801B7012D
S11302000E94FD019B01AC0169817A818B819C81F3
S11302100E946A029B01AC01C601B5010E94FE0165
S113022028960FB6F894DEBF0FBECDBFDF91CF91F5
S11302301F910F91FF90EF90DF90CF90BF90AF9000
S11302407F906F905F904F900895AF92BF92CF923E
S1130250DF92EF92FF920F931F9325E42F9326E9E9
S11302602F931F921F920F2EA12CB12CFAE7CF2EA1
S1130270F4E4DF2EF02DE12CF12C00E814E420E06E
S113028030E0A9010E94C6000F900F900F900F90CC
S11302900E94DC0270938900609388001F910F9183
S11302A0FF90EF90DF90CF90BF90AF90089584B10E
S11302B0846084B916BC80E284BD85B58B7F85BD1E
S11302C085B5826085BD85B5816085BD85B588703D
S11302D085BD84B5826084BD84B5816084BD089584
S11302E04F925F926F927F92AF92BF92CF92DF92C2
S11302F0EF92FF920F931F93CF93DF93CDB7DEB7A7
S113030028970FB6F894DEBF0FBECDBF29013A017E
S1130310ED82FE820F8318870E94FD0169837A8330
S11303208B839C83A6019501698D7A8D8B8D9C8D21
S11303300E94FD019B01AC0169817A818B819C81C2
S11303400E94990369837A838B839C83A30192011E
S1130350C801B7010E94FD019B01AC0169817A814A
S11303608B819C810E946A029B01AC01C601B5018C
S11303700E94FE0128960FB6F894DEBF0FBECDBFD3
S1130380DF91CF911F910F91FF90EF90DF90CF906D
S1130390BF90AF907F906F905F904F900895AF9211
S11303A0BF92CF92DF92EF92FF920F931F9322E4BA
S11303B02F932CE12F931F921F920F2EA12CB12C5F
S11303C0C12CF1E4DF2EF02DE12CF12C0FE713E426
S11303D020E030E0A9010E9470010F900F900F906F
S11303E00F900E94DC0268BD1F910F91FF90EF9067
S11303F0DF90CF90BF90AF9008955058BB27AA27A5
S11304000E9415020C945F030E94510338F00E946D
S1130410580320F039F49F3F19F426F40C944E034A
S11304200EF4E095E7FB0C944803E92F0E94700357
S113043058F3BA17620773078407950720F079F415
S1130440A6F50C9492030EF4E0950B2EBA2FA02D72
S11304500B01B90190010C01CA01A0011124FF276D
S1130460591B99F0593F50F4503E68F11A16F04068
S1130470A22F232F342F4427585FF3CF4695379567
S11304802795A795F0405395C9F77EF41F16BA0B2C
S1130490620B730B840BBAF09150A1F0FF0FBB1FDA
S11304A0661F771F881FC2F70EC0BA0F621F731F23
S11304B0841F48F4879577956795B795F7959E3F80
S11304C008F0B0CF9395880F08F09927EE0F979511
S11304D0879508950E947E020C945F030E9458033E
S11304E058F00E94510340F029F45F3F29F00C9426
S11304F0480351110C9493030C944E030E9470030F
S113050068F39923B1F3552391F3951B550BBB273E
S1130510AA2762177307840738F09F5F5F4F220F83
S1130520331F441FAA1FA9F335D00E2E3AF0E0E87A
S113053032D091505040E695001CCAF72BD0FE2FC4
S113054029D0660F771F881FBB1F26173707480758
S1130550AB07B0E809F0BB0B802DBF01FF27935810
S11305605F4F3AF09E3F510578F00C9448030C9489
S113057093035F3FE4F3983ED4F3869577956795AC
S1130580B795F7959F5FC9F7880F911D9695879545
S113059097F90895E1E0660F771F881FBB1F621764
S11305A073078407BA0720F0621B730B840BBA0B22
S11305B0EE1F88F7E09508950E94780388F09F570E
S11305C098F0B92F9927B751B0F0E1F0660F771F73
S11305D0881F991F1AF0BA95C9F714C0B13091F069
S11305E00E949203B1E008950C949203672F782F30
S11305F08827B85F39F0B93FCCF38695779567952E
S1130600B395D9F73EF490958095709561957F4F99
S11306108F4F9F4F0895E89409C097FB3EF490953F
S11306208095709561957F4F8F4F9F4F9923A9F0C7
S1130630F92F96E9BB279395F69587957795679556
S1130640B795F111F8CFFAF4BB0F11F460FF1BC09A
S11306506F5F7F4F8F4F9F4F16C0882311F096E92D
S113066011C0772321F09EE8872F762F05C06623DB
S113067071F096E8862F70E060E02AF09A95660F94
S1130680771F881FDAF7880F9695879597F908954D
S113069097F99F6780E870E060E008959FEF80EC31
S11306A0089500240A9416161706180609060895D4
S11306B000240A9412161306140605060895092E3A
S11306C00394000C11F4882352F0BB0F40F4BF2BA9
S11306D011F460FF04C06F5F7F4F8F4F9F4F0895E9
S11306E057FD9058440F551F59F05F3F71F04795DF
S11306F0880F97FB991F61F09F3F79F087950895C4
S1130700121613061406551FF2CF4695F1DF08C0E2
S1130710161617061806991FF1CF869571056105FF
S113072008940895E894BB2766277727CB0197F9A7
S113073008950E94AC030C945F030E94510338F0A7
S11307400E94580320F0952311F00C9448030C9454
S11307504E0311240C9493030E94700370F3959F2D
S1130760C1F3950F50E0551F629FF001729FBB27A4
S1130770F00DB11D639FAA27F00DB11DAA1F649F40
S11307806627B00DA11D661F829F2227B00DA11DF3
S1130790621F739FB00DA11D621F839FA00D611D79
S11307A0221F749F3327A00D611D231F849F600D9A
S11307B0211D822F762F6A2F11249F5750409AF0C3
S11307C0F1F088234AF0EE0FFF1FBB1F661F771F4F
S11307D0881F91505040A9F79E3F510580F00C941A
S11307E048030C9493035F3FE4F3983ED4F3869557
S11307F077956795B795F795E7959F5FC1F7FE2BBA
S1130800880F911D9695879597F90895F894FFCFD1
S9030000FC
